{
  "address": "0xdB14BcdCD3A20aE185A2f480299b63Fb8bC277Df",
  "abi": [
    {
      "inputs": [
        {
          "internalType": "address",
          "name": "to",
          "type": "address"
        },
        {
          "internalType": "uint256",
          "name": "amount",
          "type": "uint256"
        }
      ],
      "stateMutability": "nonpayable",
      "type": "constructor"
    },
    {
      "inputs": [
        {
          "internalType": "uint256",
          "name": "currentTime",
          "type": "uint256"
        },
        {
          "internalType": "uint256",
          "name": "deadline",
          "type": "uint256"
        }
      ],
      "name": "DeadlineOver",
      "type": "error"
    },
    {
      "inputs": [
        {
          "internalType": "address",
          "name": "addr",
          "type": "address"
        }
      ],
      "name": "InvalidAddress",
      "type": "error"
    },
    {
      "inputs": [
        {
          "internalType": "uint256",
          "name": "provided",
          "type": "uint256"
        },
        {
          "internalType": "uint256",
          "name": "expected",
          "type": "uint256"
        }
      ],
      "name": "InvalidMsgValue",
      "type": "error"
    },
    {
      "inputs": [],
      "name": "InvalidSignature",
      "type": "error"
    },
    {
      "inputs": [
        {
          "internalType": "uint256",
          "name": "provided",
          "type": "uint256"
        },
        {
          "internalType": "uint256",
          "name": "expected",
          "type": "uint256"
        }
      ],
      "name": "InvalidTotalAmount",
      "type": "error"
    },
    {
      "inputs": [
        {
          "internalType": "uint256",
          "name": "currentAllowance",
          "type": "uint256"
        },
        {
          "internalType": "uint256",
          "name": "expected",
          "type": "uint256"
        }
      ],
      "name": "NotAuthorizedAllowance",
      "type": "error"
    },
    {
      "inputs": [
        {
          "internalType": "uint256",
          "name": "currentBalance",
          "type": "uint256"
        },
        {
          "internalType": "uint256",
          "name": "expected",
          "type": "uint256"
        }
      ],
      "name": "NotEnoughTokens",
      "type": "error"
    },
    {
      "anonymous": false,
      "inputs": [
        {
          "indexed": true,
          "internalType": "address",
          "name": "owner",
          "type": "address"
        },
        {
          "indexed": true,
          "internalType": "address",
          "name": "spender",
          "type": "address"
        },
        {
          "indexed": false,
          "internalType": "uint256",
          "name": "value",
          "type": "uint256"
        }
      ],
      "name": "Approval",
      "type": "event"
    },
    {
      "anonymous": false,
      "inputs": [
        {
          "indexed": true,
          "internalType": "address",
          "name": "from",
          "type": "address"
        },
        {
          "indexed": true,
          "internalType": "address",
          "name": "to",
          "type": "address"
        },
        {
          "indexed": false,
          "internalType": "uint256",
          "name": "value",
          "type": "uint256"
        }
      ],
      "name": "Transfer",
      "type": "event"
    },
    {
      "inputs": [],
      "name": "DOMAIN_SEPARATOR",
      "outputs": [
        {
          "internalType": "bytes32",
          "name": "",
          "type": "bytes32"
        }
      ],
      "stateMutability": "view",
      "type": "function"
    },
    {
      "inputs": [
        {
          "internalType": "address",
          "name": "owner",
          "type": "address"
        },
        {
          "internalType": "address",
          "name": "spender",
          "type": "address"
        }
      ],
      "name": "allowance",
      "outputs": [
        {
          "internalType": "uint256",
          "name": "",
          "type": "uint256"
        }
      ],
      "stateMutability": "view",
      "type": "function"
    },
    {
      "inputs": [
        {
          "internalType": "address",
          "name": "spender",
          "type": "address"
        },
        {
          "internalType": "uint256",
          "name": "amount",
          "type": "uint256"
        }
      ],
      "name": "approve",
      "outputs": [
        {
          "internalType": "bool",
          "name": "",
          "type": "bool"
        }
      ],
      "stateMutability": "nonpayable",
      "type": "function"
    },
    {
      "inputs": [
        {
          "internalType": "address",
          "name": "spender",
          "type": "address"
        },
        {
          "internalType": "uint256",
          "name": "amount",
          "type": "uint256"
        },
        {
          "internalType": "bytes",
          "name": "data",
          "type": "bytes"
        }
      ],
      "name": "approveAndCall",
      "outputs": [
        {
          "internalType": "bool",
          "name": "",
          "type": "bool"
        }
      ],
      "stateMutability": "nonpayable",
      "type": "function"
    },
    {
      "inputs": [
        {
          "internalType": "address",
          "name": "owner",
          "type": "address"
        }
      ],
      "name": "balanceOf",
      "outputs": [
        {
          "internalType": "uint256",
          "name": "",
          "type": "uint256"
        }
      ],
      "stateMutability": "view",
      "type": "function"
    },
    {
      "inputs": [],
      "name": "decimals",
      "outputs": [
        {
          "internalType": "uint8",
          "name": "",
          "type": "uint8"
        }
      ],
      "stateMutability": "pure",
      "type": "function"
    },
    {
      "inputs": [
        {
          "internalType": "address payable[]",
          "name": "tos",
          "type": "address[]"
        },
        {
          "internalType": "uint256",
          "name": "totalAmount",
          "type": "uint256"
        }
      ],
      "name": "distributeAlongWithETH",
      "outputs": [
        {
          "internalType": "bool",
          "name": "",
          "type": "bool"
        }
      ],
      "stateMutability": "payable",
      "type": "function"
    },
    {
      "inputs": [],
      "name": "eip712Domain",
      "outputs": [
        {
          "internalType": "bytes1",
          "name": "fields",
          "type": "bytes1"
        },
        {
          "internalType": "string",
          "name": "name",
          "type": "string"
        },
        {
          "internalType": "string",
          "name": "version",
          "type": "string"
        },
        {
          "internalType": "uint256",
          "name": "chainID",
          "type": "uint256"
        },
        {
          "internalType": "address",
          "name": "verifyingContract",
          "type": "address"
        },
        {
          "internalType": "bytes32",
          "name": "salt",
          "type": "bytes32"
        },
        {
          "internalType": "uint256[]",
          "name": "extensions",
          "type": "uint256[]"
        }
      ],
      "stateMutability": "view",
      "type": "function"
    },
    {
      "inputs": [],
      "name": "name",
      "outputs": [
        {
          "internalType": "string",
          "name": "",
          "type": "string"
        }
      ],
      "stateMutability": "pure",
      "type": "function"
    },
    {
      "inputs": [
        {
          "internalType": "address",
          "name": "owner",
          "type": "address"
        }
      ],
      "name": "nonces",
      "outputs": [
        {
          "internalType": "uint256",
          "name": "",
          "type": "uint256"
        }
      ],
      "stateMutability": "view",
      "type": "function"
    },
    {
      "inputs": [
        {
          "internalType": "address",
          "name": "owner",
          "type": "address"
        },
        {
          "internalType": "address",
          "name": "spender",
          "type": "address"
        },
        {
          "internalType": "uint256",
          "name": "value",
          "type": "uint256"
        },
        {
          "internalType": "uint256",
          "name": "deadline",
          "type": "uint256"
        },
        {
          "internalType": "uint8",
          "name": "v",
          "type": "uint8"
        },
        {
          "internalType": "bytes32",
          "name": "r",
          "type": "bytes32"
        },
        {
          "internalType": "bytes32",
          "name": "s",
          "type": "bytes32"
        }
      ],
      "name": "permit",
      "outputs": [],
      "stateMutability": "nonpayable",
      "type": "function"
    },
    {
      "inputs": [],
      "name": "symbol",
      "outputs": [
        {
          "internalType": "string",
          "name": "",
          "type": "string"
        }
      ],
      "stateMutability": "view",
      "type": "function"
    },
    {
      "inputs": [],
      "name": "totalSupply",
      "outputs": [
        {
          "internalType": "uint256",
          "name": "",
          "type": "uint256"
        }
      ],
      "stateMutability": "view",
      "type": "function"
    },
    {
      "inputs": [
        {
          "internalType": "address",
          "name": "to",
          "type": "address"
        },
        {
          "internalType": "uint256",
          "name": "amount",
          "type": "uint256"
        }
      ],
      "name": "transfer",
      "outputs": [
        {
          "internalType": "bool",
          "name": "",
          "type": "bool"
        }
      ],
      "stateMutability": "nonpayable",
      "type": "function"
    },
    {
      "inputs": [
        {
          "internalType": "address payable",
          "name": "to",
          "type": "address"
        },
        {
          "internalType": "uint256",
          "name": "amount",
          "type": "uint256"
        }
      ],
      "name": "transferAlongWithETH",
      "outputs": [
        {
          "internalType": "bool",
          "name": "",
          "type": "bool"
        }
      ],
      "stateMutability": "payable",
      "type": "function"
    },
    {
      "inputs": [
        {
          "internalType": "address",
          "name": "to",
          "type": "address"
        },
        {
          "internalType": "uint256",
          "name": "amount",
          "type": "uint256"
        },
        {
          "internalType": "bytes",
          "name": "data",
          "type": "bytes"
        }
      ],
      "name": "transferAndCall",
      "outputs": [
        {
          "internalType": "bool",
          "name": "",
          "type": "bool"
        }
      ],
      "stateMutability": "nonpayable",
      "type": "function"
    },
    {
      "inputs": [
        {
          "internalType": "address",
          "name": "from",
          "type": "address"
        },
        {
          "internalType": "address",
          "name": "to",
          "type": "address"
        },
        {
          "internalType": "uint256",
          "name": "amount",
          "type": "uint256"
        }
      ],
      "name": "transferFrom",
      "outputs": [
        {
          "internalType": "bool",
          "name": "",
          "type": "bool"
        }
      ],
      "stateMutability": "nonpayable",
      "type": "function"
    },
    {
      "inputs": [
        {
          "internalType": "address",
          "name": "from",
          "type": "address"
        },
        {
          "internalType": "address",
          "name": "to",
          "type": "address"
        },
        {
          "internalType": "uint256",
          "name": "amount",
          "type": "uint256"
        },
        {
          "internalType": "bytes",
          "name": "data",
          "type": "bytes"
        }
      ],
      "name": "transferFromAndCall",
      "outputs": [
        {
          "internalType": "bool",
          "name": "",
          "type": "bool"
        }
      ],
      "stateMutability": "nonpayable",
      "type": "function"
    },
    {
      "inputs": [
        {
          "internalType": "address",
          "name": "forAddress",
          "type": "address"
        },
        {
          "internalType": "address",
          "name": "to",
          "type": "address"
        },
        {
          "internalType": "uint256",
          "name": "amount",
          "type": "uint256"
        },
        {
          "internalType": "bytes",
          "name": "data",
          "type": "bytes"
        }
      ],
      "name": "transferOnBehalfAndCall",
      "outputs": [
        {
          "internalType": "bool",
          "name": "",
          "type": "bool"
        }
      ],
      "stateMutability": "nonpayable",
      "type": "function"
    }
  ],
  "transactionHash": "0xda98ed7e5a0665aa18dfc96f043547faeab59cc8004ccad98902b214ed8b1aab",
  "args": [
    "0xE53cd71271AcAdbeb0f64d9c8C62bBdDc8cA9e66",
    "1000000000000000000000000000"
  ],
  "numDeployments": 1,
  "solcInputHash": "971f8487525c8841ed851dd2f50ed84d",
  "bytecode": "0x60c06040523480156200001157600080fd5b50604051620016ee380380620016ee833981016040819052620000349162000193565b46608081905260009081906200004b813062000067565b60a052506200005f91508390508262000107565b5050620001f1565b60007f8cad95687ba82c2ce50e74f7b754645e5117c3a5bec8151c0726d5857980a866620000ae604080518082019091526006815265546f6b656e7360d01b602082015290565b8051602091820120604051620000e893928791879101938452602084019290925260408301526001600160a01b0316606082015260800190565b6040516020818303038152906040528051906020012090505b92915050565b806000808282546200011a9190620001cf565b90915550506001600160a01b0382166000908152600160205260408120805483929062000149908490620001cf565b90915550506040518181526001600160a01b038316906000907fddf252ad1be2c89b69c2b068fc378daa952ba7f163c4a11628f55a4df523b3ef9060200160405180910390a35050565b60008060408385031215620001a757600080fd5b82516001600160a01b0381168114620001bf57600080fd5b6020939093015192949293505050565b808201808211156200010157634e487b7160e01b600052601160045260246000fd5b60805160a0516114d7620002176000396000610df301526000610dbd01526114d76000f3fe6080604052600436106101445760003560e01c806370a08231116100c0578063c1d34b8911610074578063d505accf11610059578063d505accf146103ba578063dd62ed3e146103dc578063e7fcb065146103fc57600080fd5b8063c1d34b891461037a578063cae9ca511461039a57600080fd5b806384b0196e116100a557806384b0196e146102e957806395d89b4114610311578063a9059cbb1461035a57600080fd5b806370a082311461027d5780637ecebe00146102b357600080fd5b806323b872dd116101175780633644e515116100fc5780633644e515146102285780634000aea01461023d57806365520efa1461025d57600080fd5b806323b872dd146101ec578063313ce5671461020c57600080fd5b806306fdde0314610149578063095ea7b31461018a5780630e02df54146101ba57806318160ddd146101cd575b600080fd5b34801561015557600080fd5b50604080518082019091526006815265546f6b656e7360d01b60208201525b6040516101819190610f21565b60405180910390f35b34801561019657600080fd5b506101aa6101a5366004610f53565b61040f565b6040519015158152602001610181565b6101aa6101c8366004610fa5565b610426565b3480156101d957600080fd5b506000545b604051908152602001610181565b3480156101f857600080fd5b506101aa610207366004611070565b6105ac565b34801561021857600080fd5b5060405160128152602001610181565b34801561023457600080fd5b506101de6105c3565b34801561024957600080fd5b506101aa6102583660046110fa565b6105cd565b34801561026957600080fd5b506101aa610278366004611156565b610671565b34801561028957600080fd5b506101de6102983660046111c9565b6001600160a01b031660009081526001602052604090205490565b3480156102bf57600080fd5b506101de6102ce3660046111c9565b6001600160a01b031660009081526003602052604090205490565b3480156102f557600080fd5b506102fe610718565b60405161018197969594939291906111e6565b34801561031d57600080fd5b506101746040518060400160405280600681526020017f544f4b454e53000000000000000000000000000000000000000000000000000081525081565b34801561036657600080fd5b506101aa610375366004610f53565b61077a565b34801561038657600080fd5b506101aa610395366004611156565b610787565b3480156103a657600080fd5b506101aa6103b53660046110fa565b6107df565b3480156103c657600080fd5b506103da6103d5366004611298565b610835565b005b3480156103e857600080fd5b506101de6103f736600461130f565b610a79565b6101aa61040a366004610f53565b610ac0565b600061041c338484610b02565b5060015b92915050565b600080835134610436919061135e565b90508351816104459190611380565b341461049957348451826104599190611380565b6040517f1f89f671000000000000000000000000000000000000000000000000000000008152600481019290925260248201526044015b60405180910390fd5b60008451846104a8919061135e565b90508451816104b79190611380565b841461050657838551826104cb9190611380565b6040517fe93890a200000000000000000000000000000000000000000000000000000000815260048101929092526024820152604401610490565b60005b855181101561059b576105363387838151811061052857610528611397565b602002602001015184610ba1565b85818151811061054857610548611397565b60200260200101516001600160a01b03166108fc849081150290604051600060405180830381858888f19350505050158015610588573d6000803e3d6000fd5b5080610593816113ad565b915050610509565b50600195945050505050565b905090565b60006105b9848484610cdf565b5060019392505050565b60006105a7610db8565b60006105da338686610ba1565b6040517fa4c0ed360000000000000000000000000000000000000000000000000000000081526001600160a01b0386169063a4c0ed36906106259033908890889088906004016113f2565b6020604051808303816000875af1158015610644573d6000803e3d6000fd5b505050506040513d601f19601f82011682018060405250810190610668919061141b565b95945050505050565b600061067e338686610ba1565b6040517f2eedcb710000000000000000000000000000000000000000000000000000000081526001600160a01b03861690632eedcb71906106cb9033908a9089908990899060040161143d565b6020604051808303816000875af11580156106ea573d6000803e3d6000fd5b505050506040513d601f19601f8201168201806040525081019061070e919061141b565b9695505050505050565b7f0d000000000000000000000000000000000000000000000000000000000000006060806000808083610749610e19565b604080516020808201835260008083528351818152918201909352999a929990985046975030965090945092509050565b600061041c338484610ba1565b6000610794868686610cdf565b6040517fa4c0ed360000000000000000000000000000000000000000000000000000000081526001600160a01b0386169063a4c0ed36906106cb9089908890889088906004016113f2565b60006107ec338686610b02565b6040517eba451f0000000000000000000000000000000000000000000000000000000081526001600160a01b0386169062ba451f906106259033908890889088906004016113f2565b6001600160a01b03871661085f57604051634726455360e11b815260006004820152602401610490565b6001600160a01b038716600090815260036020526040812054906108816105c3565b604080517f6e71edae12b1b97f4d1f60370fef10105fa2faae0126114a169c64845d6126c960208201526001600160a01b03808d1692820192909252908a1660608201526080810189905260a0810184905260c0810188905260e001604051602081830303815290604052805190602001206040516020016109359291907f190100000000000000000000000000000000000000000000000000000000000081526002810192909252602282015260420190565b60408051601f1981840301815282825280516020918201206000845290830180835281905260ff8816918301919091526060820186905260808201859052915060019060a0016020604051602081039080840390855afa15801561099d573d6000803e3d6000fd5b505050602060405103516001600160a01b0316896001600160a01b0316146109f1576040517f8baa579f00000000000000000000000000000000000000000000000000000000815260040160405180910390fd5b85158015906109ff57508542115b15610a3f576040517fdd6b219a00000000000000000000000000000000000000000000000000000000815242600482015260248101879052604401610490565b610a4a82600161147b565b6001600160a01b038a16600090815260036020526040902055610a6e898989610b02565b505050505050505050565b6000306001600160a01b03841603610a945750600019610420565b506001600160a01b03918216600090815260026020908152604080832093909416825291909152205490565b6000610acd338484610ba1565b6040516001600160a01b038416903480156108fc02916000818181858888f193505050501580156105b9573d6000803e3d6000fd5b6001600160a01b0383161580610b1f57506001600160a01b038216155b15610b4057604051634726455360e11b815260006004820152602401610490565b6001600160a01b0383811660008181526002602090815260408083209487168084529482529182902085905590518481527f8c5be1e5ebec7d5bd14f71427d1e84f3dd0314c0f7b2291e5b200ac8c7c3b925910160405180910390a3505050565b6001600160a01b0382161580610bbf57506001600160a01b03821630145b15610be857604051634726455360e11b81526001600160a01b0383166004820152602401610490565b6001600160a01b03831660009081526001602052604090205481811015610c45576040517f6584853f0000000000000000000000000000000000000000000000000000000081526004810182905260248101839052604401610490565b610c4f828261148e565b6001600160a01b038086166000908152600160205260408082209390935590851681529081208054849290610c8590849061147b565b92505081905550826001600160a01b0316846001600160a01b03167fddf252ad1be2c89b69c2b068fc378daa952ba7f163c4a11628f55a4df523b3ef84604051610cd191815260200190565b60405180910390a350505050565b336001600160a01b03841614801590610d0157506001600160a01b0383163014155b15610da8576001600160a01b03831660009081526002602090815260408083203384529091529020546000198114610da65781811015610d77576040517f95fcd2540000000000000000000000000000000000000000000000000000000081526004810182905260248101839052604401610490565b610d81828261148e565b6001600160a01b03851660009081526002602090815260408083203384529091529020555b505b610db3838383610ba1565b505050565b6000467f00000000000000000000000000000000000000000000000000000000000000008114610df157610dec8130610e3e565b610e13565b7f00000000000000000000000000000000000000000000000000000000000000005b91505090565b60606105a7604080518082019091526006815265546f6b656e7360d01b602082015290565b60007f8cad95687ba82c2ce50e74f7b754645e5117c3a5bec8151c0726d5857980a866610e84604080518082019091526006815265546f6b656e7360d01b602082015290565b8051602091820120604051610ebd93928791879101938452602084019290925260408301526001600160a01b0316606082015260800190565b60405160208183030381529060405280519060200120905092915050565b6000815180845260005b81811015610f0157602081850181015186830182015201610ee5565b506000602082860101526020601f19601f83011685010191505092915050565b602081526000610f346020830184610edb565b9392505050565b6001600160a01b0381168114610f5057600080fd5b50565b60008060408385031215610f6657600080fd5b8235610f7181610f3b565b946020939093013593505050565b634e487b7160e01b600052604160045260246000fd5b8035610fa081610f3b565b919050565b60008060408385031215610fb857600080fd5b823567ffffffffffffffff80821115610fd057600080fd5b818501915085601f830112610fe457600080fd5b8135602082821115610ff857610ff8610f7f565b8160051b604051601f19603f8301168101818110868211171561101d5761101d610f7f565b60405292835281830193508481018201928984111561103b57600080fd5b948201945b838610156110605761105186610f95565b85529482019493820193611040565b9997909101359750505050505050565b60008060006060848603121561108557600080fd5b833561109081610f3b565b925060208401356110a081610f3b565b929592945050506040919091013590565b60008083601f8401126110c357600080fd5b50813567ffffffffffffffff8111156110db57600080fd5b6020830191508360208285010111156110f357600080fd5b9250929050565b6000806000806060858703121561111057600080fd5b843561111b81610f3b565b935060208501359250604085013567ffffffffffffffff81111561113e57600080fd5b61114a878288016110b1565b95989497509550505050565b60008060008060006080868803121561116e57600080fd5b853561117981610f3b565b9450602086013561118981610f3b565b935060408601359250606086013567ffffffffffffffff8111156111ac57600080fd5b6111b8888289016110b1565b969995985093965092949392505050565b6000602082840312156111db57600080fd5b8135610f3481610f3b565b7fff00000000000000000000000000000000000000000000000000000000000000881681526000602060e08184015261122260e084018a610edb565b8381036040850152611234818a610edb565b606085018990526001600160a01b038816608086015260a0850187905284810360c0860152855180825283870192509083019060005b818110156112865783518352928401929184019160010161126a565b50909c9b505050505050505050505050565b600080600080600080600060e0888a0312156112b357600080fd5b87356112be81610f3b565b965060208801356112ce81610f3b565b95506040880135945060608801359350608088013560ff811681146112f257600080fd5b9699959850939692959460a0840135945060c09093013592915050565b6000806040838503121561132257600080fd5b823561132d81610f3b565b9150602083013561133d81610f3b565b809150509250929050565b634e487b7160e01b600052601160045260246000fd5b60008261137b57634e487b7160e01b600052601260045260246000fd5b500490565b808202811582820484141761042057610420611348565b634e487b7160e01b600052603260045260246000fd5b600060001982036113c0576113c0611348565b5060010190565b818352818160208501375060006020828401015260006020601f19601f840116840101905092915050565b6001600160a01b038516815283602082015260606040820152600061070e6060830184866113c7565b60006020828403121561142d57600080fd5b81518015158114610f3457600080fd5b60006001600160a01b038088168352808716602084015250846040830152608060608301526114706080830184866113c7565b979650505050505050565b8082018082111561042057610420611348565b818103818111156104205761042061134856fea264697066735822122056d5df3becee1422c98d2c22493b52e001e259838741b8e696a0e5681eb3961b64736f6c63430008110033",
  "devdoc": {
    "errors": {
      "DeadlineOver(uint256,uint256)": [
        {
          "params": {
            "currentTime": "time at which the error happen",
            "deadline": "the deadline"
          }
        }
      ],
      "InvalidAddress(address)": [
        {
          "params": {
            "addr": "invalid address"
          }
        }
      ],
      "InvalidMsgValue(uint256,uint256)": [
        {
          "params": {
            "expected": "value expected",
            "provided": "msg.value amount provided"
          }
        }
      ],
      "InvalidTotalAmount(uint256,uint256)": [
        {
          "params": {
            "expected": "value expected",
            "provided": "msg.value amount provided"
          }
        }
      ],
      "NotAuthorizedAllowance(uint256,uint256)": [
        {
          "params": {
            "currentAllowance": "the current allowance",
            "expected": "amount expected"
          }
        }
      ],
      "NotEnoughTokens(uint256,uint256)": [
        {
          "params": {
            "currentBalance": "the current balance",
            "expected": "amount expected"
          }
        }
      ]
    },
    "kind": "dev",
    "methods": {
      "approveAndCall(address,uint256,bytes)": {
        "params": {
          "amount": "number of token to transfer",
          "data": "extra data",
          "spender": "account to send the token for"
        },
        "returns": {
          "_0": "success"
        }
      },
      "eip712Domain()": {
        "returns": {
          "chainID": "EIP-712 chainID",
          "extensions": "A list of EIP numbers that specify additional fields in the domain. The method to obtain the value for each of these additional fields and any conditions for inclusion are expected to be specified in the respective EIP. The value of fields does not affect their inclusion.",
          "fields": "A bit map where bit i is set to 1 if and only if domain field i is present (0  i  4). Bits are read from least significant to most significant, and fields are indexed in the order that is specified by EIP-712, identical to the order in which they are listed in the function type.",
          "name": "EIP-712 name",
          "salt": "EIP-712 salt",
          "verifyingContract": "EIP-712 name verifyingContract",
          "version": "EIP-712 version"
        }
      },
      "nonces(address)": {
        "params": {
          "owner": "address queried"
        },
        "returns": {
          "_0": "nonce value"
        }
      },
      "permit(address,address,uint256,uint256,uint8,bytes32,bytes32)": {
        "params": {
          "deadline": "timestamp in seconds after which the permit is not valid.",
          "owner": "owner of the tokens",
          "r": "signature part r",
          "s": "signature part s",
          "spender": "address allowed to spend on behalf of the owner.",
          "v": "signature part v",
          "value": "amount of token allowed to be spent"
        }
      },
      "transferAndCall(address,uint256,bytes)": {
        "params": {
          "amount": "number of token to transfer",
          "data": "extra data",
          "to": "account to receive the tokens"
        },
        "returns": {
          "_0": "success"
        }
      },
      "transferFromAndCall(address,address,uint256,bytes)": {
        "params": {
          "amount": "number of token to transfer",
          "data": "extra data",
          "from": "account to send the token from",
          "to": "account to receive the tokens"
        },
        "returns": {
          "_0": "success"
        }
      },
      "transferOnBehalfAndCall(address,address,uint256,bytes)": {
        "params": {
          "amount": "number of token to transfer",
          "data": "extra data",
          "forAddress": "account to send the token for",
          "to": "account to receive the tokens"
        },
        "returns": {
          "_0": "success"
        }
      }
    },
    "version": 1
  },
  "userdoc": {
    "errors": {
      "DeadlineOver(uint256,uint256)": [
        {
          "notice": "The permit has expired"
        }
      ],
      "InvalidAddress(address)": [
        {
          "notice": "An invalid address is specified (for example: zero address)"
        }
      ],
      "InvalidMsgValue(uint256,uint256)": [
        {
          "notice": "The msg value do not match the expected value"
        }
      ],
      "InvalidSignature()": [
        {
          "notice": "The signature do not match the expected signer"
        }
      ],
      "InvalidTotalAmount(uint256,uint256)": [
        {
          "notice": "The total amount provided do not match the expected value"
        }
      ],
      "NotAuthorizedAllowance(uint256,uint256)": [
        {
          "notice": "the amount requested exceed the allowance"
        }
      ],
      "NotEnoughTokens(uint256,uint256)": [
        {
          "notice": "the amount requested exceed the balance"
        }
      ]
    },
    "events": {
      "Approval(address,address,uint256)": {
        "notice": "trigger on approval amount being set.   Note that Transfer events need to be considered to compute the current allowance."
      },
      "Transfer(address,address,uint256)": {
        "notice": "trigger when tokens are transferred, including zero value transfers."
      }
    },
    "kind": "user",
    "methods": {
      "DOMAIN_SEPARATOR()": {
        "notice": "EIP-712 Domain separator hash"
      },
      "allowance(address,address)": {
        "notice": "Returns the amount which `spender` is still allowed to withdraw from `owner`."
      },
      "approve(address,uint256)": {
        "notice": "Allows `spender` to withdraw from your account multiple times, up to `amount`."
      },
      "approveAndCall(address,uint256,bytes)": {
        "notice": "approve `amount` token to be spent by `spender` and callback into it via `onTokenApproval`"
      },
      "balanceOf(address)": {
        "notice": "Returns the account balance of another account with address `owner`."
      },
      "decimals()": {
        "notice": "Returns the number of decimals the token uses."
      },
      "distributeAlongWithETH(address[],uint256)": {
        "notice": "distribute"
      },
      "eip712Domain()": {
        "notice": "The return values of this function MUST describe the domain separator that is used for verification of EIP-712 signatures in the contract. They describe both the form of the EIP712Domain struct (i.e., which of the optional fields and extensions are present) and the value of each field, as follows."
      },
      "nonces(address)": {
        "notice": "return the current nonce of the owner"
      },
      "permit(address,address,uint256,uint256,uint8,bytes32,bytes32)": {
        "notice": "allow `spender` to spend `value` amount of token on behalf of `owner`"
      },
      "symbol()": {
        "notice": "Returns the symbol of the token."
      },
      "totalSupply()": {
        "notice": "Returns the total token supply."
      },
      "transfer(address,uint256)": {
        "notice": "Transfers `amount` of tokens to address `to`."
      },
      "transferAlongWithETH(address,uint256)": {
        "notice": "transfer"
      },
      "transferAndCall(address,uint256,bytes)": {
        "notice": "transfer `amount` token to `to` and callback into it via `onTokenTransfer`"
      },
      "transferFrom(address,address,uint256)": {
        "notice": "Transfers `amount` tokens from address `from` to address `to`."
      },
      "transferFromAndCall(address,address,uint256,bytes)": {
        "notice": "transfer `amount` token to `to` and callback into it via `onTokenTransfer`"
      },
      "transferOnBehalfAndCall(address,address,uint256,bytes)": {
        "notice": "transfer `amount` token to `to` and callback into it via `onTokenTransferedOnBehalf`"
      }
    },
    "version": 1
  },
  "storageLayout": {
    "storage": [
      {
        "astId": 243,
        "contract": "src/Tokens.sol:Tokens",
        "label": "_totalSupply",
        "offset": 0,
        "slot": "0",
        "type": "t_uint256"
      },
      {
        "astId": 247,
        "contract": "src/Tokens.sol:Tokens",
        "label": "_balances",
        "offset": 0,
        "slot": "1",
        "type": "t_mapping(t_address,t_uint256)"
      },
      {
        "astId": 253,
        "contract": "src/Tokens.sol:Tokens",
        "label": "_allowances",
        "offset": 0,
        "slot": "2",
        "type": "t_mapping(t_address,t_mapping(t_address,t_uint256))"
      },
      {
        "astId": 22,
        "contract": "src/Tokens.sol:Tokens",
        "label": "_nonces",
        "offset": 0,
        "slot": "3",
        "type": "t_mapping(t_address,t_uint256)"
      }
    ],
    "types": {
      "t_address": {
        "encoding": "inplace",
        "label": "address",
        "numberOfBytes": "20"
      },
      "t_mapping(t_address,t_mapping(t_address,t_uint256))": {
        "encoding": "mapping",
        "key": "t_address",
        "label": "mapping(address => mapping(address => uint256))",
        "numberOfBytes": "32",
        "value": "t_mapping(t_address,t_uint256)"
      },
      "t_mapping(t_address,t_uint256)": {
        "encoding": "mapping",
        "key": "t_address",
        "label": "mapping(address => uint256)",
        "numberOfBytes": "32",
        "value": "t_uint256"
      },
      "t_uint256": {
        "encoding": "inplace",
        "label": "uint256",
        "numberOfBytes": "32"
      }
    }
  }
}